:020000040800F2
:10000000FFFF012049130008911300089113000815
:1000100091130008911300089113000800000000DC
:100020000000000000000000000000009113000824
:10003000911300080000000091130008FD0700085C
:100040009113000891130008911300089113000800
:1000500091130008911300089113000891130008F0
:1000600091130008911300089113000891130008E0
:1000700091130008911300089113000891130008D0
:1000800091130008911300089113000891130008C0
:1000900091130008911300089113000891130008B0
:1000A00091130008911300089113000891130008A0
:1000B0009113000891130008911300089113000890
:1000C0009113000891130008911300089113000880
:1000D0009113000891130008911300089113000870
:1000E0009113000891130008911300089113000860
:1000F0009113000891130008911300089113000850
:10010000911300089113000891130008911300083F
:10011000911300089113000891130008911300082F
:10012000911300089113000891130008911300081F
:10013000911300089113000891130008911300080F
:1001400091130008911300089113000891130008FF
:1001500091130008911300089113000891130008EF
:1001600091130008911300089113000891130008DF
:1001700091130008911300089113000891130008CF
:0801800091130008911300081F
:1001900010B5054C237833B9044B13B10448AFF3C1
:1001A00000800123237010BD8800002000000000A3
:1001B000641C000808B5034B1BB103490348AFF3A7
:1001C000008008BD000000008C000020641C0008B6
:1001D0002B499FED2C6A4B694A69DFED2B6A30B4DD
:1001E00023F0F00300F0F0052B43284C4B6194ED15
:1001F000007AB8EE477A84B0C7EE067A000122F0A2
:10020000F002C0B2104367EEA67AFCEEE77ACDEDBD
:10021000007A009B17EE902A2BB1009B013B0093C4
:10022000009B002BF9D11A4B042119830192019BE9
:100230002BB1019B013B0193019B002BF9D1104B8A
:10024000134904244C8358610292029B2BB1029BF8
:10025000013B0293029B002BF9D10D4B0421198322
:100260000392039B2BB1039B013B0393039B002B46
:10027000F9D1074B04225A8304B030BC704700BF49
:10028000000C02400024744B0000E04210000020EB
:100290000004024070B403230C684600B3400125FB
:1002A00005FA06F224EA030414430C604A6805FACE
:1002B00000F022EA00024A608A680220B04022EA86
:1002C000030202438A60CA6822EA030370BCCB605F
:1002D000704700BF30B440000D68032303FA00F4F8
:1002E00025EA04050D60CB68824023EA040313432A
:1002F00030BCCB60704700BF104BDFED117A93ED3F
:10030000007AB8EE477A00EBC000C7EE276AC0F368
:100310009B0082B007EE900AF8EEE77A67EEA67AC5
:10032000FCEEE77ACDED017A019B2BB1019B013BFD
:100330000193019B002BF9D102B0704710000020FF
:100340000024744B2DE9F041514A88B0082303255D
:10035000106805FA03F420EA04001060D168023343
:1003600021EA0401102BD160F2D14A4B9FED4A6A79
:1003700093ED007ADFED496AB8EE477AC7EE067A68
:1003800067EEA67AFCEEE77ACDED067A069B17EECD
:10039000902A2BB1069B013B0693069B002BF9D1BB
:1003A0003F4B01200221588319830592059B2BB1F5
:1003B000059B013B0593059B002BF9D1384B04218C
:1003C00019830492049B2BB1049B013B0493049B6F
:1003D000002BF9D12E4B18690392039BC0B22BB1AD
:1003E000039B013B0393039B002BF9D12C4B04216E
:1003F00059830292029B2BB1029B013B0293029B09
:10040000002BF9D1264B042119830192019B2BB1BA
:10041000019B013B0193019B002BF9D1204C1C4B0C
:10042000042161834FF0030E01274FF0020C1C687A
:100430004D000EFA05F607FA05F824EA060444EA28
:1004400008041C605C6807FA01F824EA08045C6090
:100450009C680CFA05F524EA06042C439C60DC68D1
:10046000013124EA06060829DE60E0D10C4BA3F82E
:100470001AC00792079B2BB1079B013B0793079B71
:10048000002BF9D100F0800008B0BDE8F08100BF7A
:10049000000C0240100000200024744B0000E042D9
:1004A00000040240032806D0012803D1044B5883DE
:1004B00008468DE67047024B01221A83084687E6FC
:1004C000000402407D487E497E4A7F4BF0B5046BB4
:1004D00044F001040463046B44F002040463046BFD
:1004E00044F008040463086820F0404040F0804075
:1004F0000860486820F400404860886820F0404068
:1005000040F000408860C86820F04040C860106833
:1005100020F0030040F001001060506820F001005E
:100520005060906820F0030040F002009060D068B6
:1005300020F00300D060106820F00C0040F00400B0
:100540001060506820F002005060906820F00C00AD
:1005500040F008009060D06820F00C00D060106877
:1005600020F0300040F010001060506820F00400CF
:100570005060906820F0300040F020009060D0681B
:100580004FF4004520F030000724D06085B00D8383
:10059000042054830326012402251A68410006FA28
:1005A00001F704FA01FC22EA070242EA0C021A608F
:1005B0005A6804FA00FC22EA0C025A609A6805FAAA
:1005C00001F122EA07020A439A60DA68013022EA5E
:1005D00007020828DA60E0D1FFF7B4FE0028FBD15B
:1005E000394A3A4953699FED3A6ADFED3A6A23F096
:1005F000FF030133536191ED007AB8EE477AC7EEFD
:10060000067A67EEA67AFCEEE77ACDED037A039BD5
:1006100017EE902A2BB1039B013B0393039B002B06
:10062000F9D1284B042119830292029B2BB1029B22
:10063000013B0293029B002BF9D1224B224904205B
:1006400058834B6923F0FF0328334B610192019BD0
:100650002BB1019B013B0193019B002BF9D1194B5D
:10066000042119830092009B2BB1009B013B009356
:10067000009B002BF9D1134B04225A83FFF762FE33
:100680000028FBD10F4B01225A832820FFF7A0FD41
:10069000FFF758FE0028FBD10A4B01225A830C2099
:1006A000FFF796FDFFF74EFE0028FBD1054B012218
:1006B00006205A8305B0BDE8F04089E500380240C5
:1006C0000000024000040240000C02401000002024
:1006D0000024744B00C8AF4608B5FFF733FE00286E
:1006E000FBD1034B01205883BDE8084070E500BFF3
:1006F0000004024038B505460C46FFF723FE0028EB
:10070000FBD114B1012C0AD038BD094B05F03F00D4
:1007100001225A8340F08000BDE8384058E5044B80
:1007200065F03F005C83C0B2BDE8384050E500BFD3
:100730000004024010B50446FFF704FE0028FBD178
:10074000034B012220461A83BDE8104040E500BF5C
:1007500000040240F8B5037893B1002910DD094F79
:10076000044645180126FFF7EDFD0028FBD114F8DB
:10077000010B3E83FFF72CFD23780BB1A542F2D18C
:10078000F8BD00BF0004024010B5FFF79BFE0D212D
:100790001348FFF7DFFF00F0AFF800F037F8114B18
:1007A000186000F05BF8104A104B11484FF4802499
:1007B0000021146082F812131B68A0FB03239B091D
:1007C000013BB3F1807F08D20A4A0B485360F02402
:1007D000072380F8234091601360002010BD00BF04
:1007E0007C1C0008B400002000E100E010000020A4
:1007F000D34D621010E000E000ED00E0024A136803
:1008000001331360704700BFA400002038B50820F2
:1008100000F0E4FD074A084D136B43F01003044653
:1008200013632023C4E900350448214600F07EFC10
:10083000204638BD0038024001030002001002408B
:10084000032807DC044A0123033003FA00F00023E5
:1008500053615061704700BF001002401649174AAB
:10086000086B174B40F0010010B40863086CD024EB
:1008700040F400300864148111895DF8044B89B29A
:1008800041F002011181196A21F47F411962196A4C
:1008900041F4EE411962196821F0F00119601968FC
:1008A00041F0A001196093899BB243F4005343F0D7
:1008B0000C039381704700BF0038024000440040A1
:1008C00000000240034A13881B06FCD580B29080CA
:1008D000704700BF00440040017849B1054A1388C1
:1008E0001B06FCD589B2918010F8011F0029F6D1B2
:1008F000704700BF00440040084A136843F4803347
:10090000136013689B03FCD5936823F00303936083
:10091000936843F001039360002070470038024061
:100920003849394BD1F88820384842F47002C1F870
:1009300088201A68002142F001021A6099601A6842
:1009400022F0847222F480321A6058601A6882B0F1
:1009500022F480221A60D960009101911A6842F451
:1009600080321A6003E0009AB2F5A04F09D01A68ED
:1009700002F400320192009A01320092019A002A98
:10098000F1D0214B1B6813F4003318BF01230193EE
:10099000019B012B05D01B4B4FF000629A6002B007
:1009A0007047194B1A491A6C1A4842F080521A645F
:1009B0000A6842F440420A609A689A609A6842F46F
:1009C00000429A609A6842F4A0529A6058601A688D
:1009D00042F080721A601A689201FCD50E4A0A49E8
:1009E00040F2057010609A6822F003029A609A68DB
:1009F00042F002029A608B6803F00C03082BFAD1D4
:100A0000C9E700BF00ED00E00038024010300024CC
:100A10000070004019544007003C0240154A93689A
:100A200003F00C03042B0BD0082B0BD0124B114AF4
:100A300012499268C2F303128A5CD3400B6170477B
:100A40000F4BF4E75068516852684302C2F38812B2
:100A50004CBF0B4B084B01F03F01B3FBF1F303FB21
:100A600002F3044A5268C2F3014201325200B3FB5E
:100A7000F2F3DCE7003802400024F400000000201C
:100A800000127A000F4B10481A68002142F0010250
:100A900030B41A6099601A680C4D0D4C22F0A852BF
:100AA00022F410221A605D60C3F88440C3F8880005
:100AB0001A6822F480221A6030BCD960C3F88C1006
:100AC000704700BF0038024000300024103000247E
:100AD00000300020024B00221A701870704700BFCF
:100AE0000238024082B000230949019300E04AB96C
:100AF0000A68019B01330193019BB3F5A04F02F4F7
:100B00000032F4D1024B1868C0F3404002B0704785
:100B100000380240034A136823F0F80343EAC00395
:100B20001360704700380240014B1860704700BFE7
:100B300000004742064B002201281A701A7005D0A7
:100B4000042802D105221A70704770471870704748
:100B500070380240014B1860704700BF800E47425A
:100B600030B4029D064C40EA05605B080843013B37
:100B700040EA821040EA0340606030BC704700BF2A
:100B800000380240014B1860704700BF60004742C8
:100B9000034B090741EA8010C3F88400704700BF87
:100BA00000380240014B1860704700BF68004742A0
:100BB0001207044B42EA016141EA8010C3F8880041
:100BC000704700BF00380240014B1860704700BFFB
:100BD00070004742014B1860704700BF4C0047420D
:100BE000034A936823F0EC63194301439160704713
:100BF00000380240034A936823F0784319430143C5
:100C00009160704700380240034A936823F0030361
:100C100003439360704700BF00380240024B98685E
:100C200000F00C00704700BF00380240034A936890
:100C300023F0F00303439360704700BF0038024085
:100C4000034A936823F4E05303439360704700BF63
:100C500000380240034A936823F4604343EAC00328
:100C600093607047003802401F4A936803F00C03FA
:100C7000042B10B41BD0082B1CD01C4B03601A4A49
:100C80001B499468C4F303140C5DE340436094680B
:100C9000C4F382240C5D23FA04F4846092685DF846
:100CA000044BC2F342328A5CD340C3607047114B9D
:100CB0000360E4E75468516852686302C2F3881223
:100CC0004CBF0C4B094B01F03F01B3FBF1F303FBAD
:100CD00002F3054A5268C2F3014201325200B3FBEB
:100CE000F2F30360CBE700BF003802400024F400B9
:100CF0001400002000127A0000F44073B3F5407F26
:100D000009D108498A6820F0704322F4F81223F4CC
:100D1000407313438B60034B1A6FC0F30B001043F7
:100D20001867704700380240014B1860704700BFD9
:100D30003C0E4742014B1860704700BF400E4742CF
:100D4000014B1860704700BF5C014742044AD2F86B
:100D50008C3023F440130343C2F88C30704700BF3B
:100D600000380240044AD2F88C3023F44003034395
:100D7000C2F88C30704700BF00380240044AD2F8F5
:100D80008C30013823F01F031843C2F88C007047E1
:100D900000380240054AD2F88C30013823F4F85369
:100DA00043EA0023C2F88C30704700BF003802408D
:100DB000044AD2F88C3023F440330343C2F88C3019
:100DC000704700BF00380240014B1860704700BFF9
:100DD000E0114742044A136B11B118431063704786
:100DE00023EA00001063704700380240044A536B46
:100DF00011B118435063704723EA000050637047F5
:100E000000380240044A936B11B118439063704755
:100E100023EA00009063704700380240044A136CD4
:100E200011B118431064704723EA00001064704742
:100E300000380240044A536C11B1184350647047A3
:100E400023EA00005064704700380240044A1369E6
:100E500011B118431061704723EA00001061704718
:100E600000380240044A536911B118435061704779
:100E700023EA00005061704700380240044A936939
:100E800011B118439061704723EA000090617047E8
:100E900000380240044A136A11B1184310627047C7
:100EA00023EA00001062704700380240044A536A87
:100EB00011B118435062704723EA00005062704736
:100EC00000380240044A136D11B118431065704791
:100ED00023EA00001065704700380240044A536D51
:100EE00011B118435065704723EA00005065704700
:100EF00000380240044A936D11B118439065704761
:100F000023EA00009065704700380240044A136EDF
:100F100011B118431066704723EA0000106670474D
:100F200000380240044A536E11B1184350667047AE
:100F300023EA00005066704700380240044A136FED
:100F400001280CBF43F0080323F008031367704720
:100F500000380240044A137811B1184310707047EA
:100F600023EA0000107070470D3802404309012B3E
:100F70000BD0022B094B0CBF1B6F5B6F00F01F00E7
:100F800023FA00F000F001007047044B1B6800F0EA
:100F90001F0023FA00F000F0010070470038024003
:100FA000024A536F43F08073536770470038024022
:100FB000034BDB68184214BF01200020704700BFBC
:100FC00000380240014B1870704700BF0E380240D5
:100FD00008B54B4B984228D04A4B98422FD04A4BE9
:100FE000984236D0494B984215D0494B98423AD056
:100FF000484B984241D0484B984248D0474B984282
:101000005BD0474B98424CD0464B98425FD0464B02
:10101000984268D008BD01210820FFF717FFBDE8FE
:10102000084000210820FFF711BF01210846FFF703
:101030000DFFBDE8084000210120FFF707BF012197
:101040000220FFF703FFBDE8084000210220FFF760
:10105000FDBE01210420FFF7F9FEBDE80840002194
:101060000420FFF7F3BE01211020FFF7EFFEBDE8DB
:10107000084000211020FFF7E9BE01212020FFF7E2
:10108000E5FEBDE8084000212020FFF7DFBE01217A
:101090004020FFF7DBFEBDE8084000214020FFF7BD
:1010A000D5BE01214FF48070FFF7D0FEBDE80840A7
:1010B00000214FF48070FFF7C9BE01218020FFF7A7
:1010C000C5FEBDE8084000218020FFF7BFBE01211A
:1010D0004FF40070FFF7BAFEBDE8084000214FF45E
:1010E0000070FFF7B3BE01214FF48060FFF7AEFE42
:1010F000BDE8084000214FF48060FFF7A7BE00BFA5
:10110000000002400004024000080240000C0240BF
:10111000001002400014024000180240001C02406F
:101120000020024000240240002802402DE9F04740
:1011300000230F6801264FF0030C02E00133102B4F
:1011400041D006FA03F232EA0704F7D1D0F800E002
:101150005C000CFA04F52EEA050EC0F800E091F8E8
:101160000490D0F800A009FA04FE09F1FF394EEA14
:101170000A0EB9F1010FA846C0F800E06FEA0505B4
:1011800015D8D0F808E005EA0E0585604D79D0F84D
:1011900008E0A54045EA0E058560456825EA02029B
:1011A00042608A7945689A4092B22A434260C26896
:1011B00022EA0802C260CA79C568A24001332A4304
:1011C000102BC260BDD1BDE8F08700BF4FF6FF72A3
:1011D0000023C0E90023704782B04FF480330193AD
:1011E000019B0B430193019BC361C161019BC361DF
:1011F000C3690193C369019302B07047036919423F
:1012000014BF012000207047006980B2704700BF02
:101210004369194214BF012000207047406980B221
:10122000704700BF01837047418370470AB1018353
:1012300070474183704700BF41617047436959401F
:1012400041617047CB0800EB830001F0070110B447
:10125000036A89000F248C4023EA04030362036AB3
:101260005DF8044B8A401A43026270470000000098
:1012700001F0FF01102A2BDB10F0070F08D010F847
:10128000013B013A8B422DD010F0070F42B3F6D14B
:10129000F0B441EA012141EA014122F007047FF064
:1012A00000070023F0E80256083C85EA010586EABB
:1012B000010685FA47F5A3FA87F586FA47F6A5FAF7
:1012C00087F68EB9EED1F0BC01F0FF0102F0070203
:1012D00032B110F8013B013A83EA010313B1F8D1AE
:1012E0000020704701387047002D06BF354603388F
:1012F000073815F0010F07D1013015F4807F02BFC8
:10130000013015F4C03F0130F0BC0138704700BF18
:1013100000B58FB0FFF738FAFFF7DEF90748084D40
:10132000084C0921FFF716FA2A68214601A800F0A7
:1013300017F901A8FFF7D0FAF6E700BF8C1C0008E8
:10134000A4000020981C0008002103E00B4B5B5810
:10135000435004310A480B4B42189A42F6D30A4ACA
:1013600002E0002342F8043B084B9A42F9D3FFF70E
:10137000D7FA00F00FF8FFF7CBFF7047E01C00082A
:10138000000000208800002088000020C800002005
:10139000FEE7000070B50D4D0D4C641BA410002637
:1013A000A64209D10B4D0C4C00F05CFC641BA41050
:1013B0000026A64205D170BD55F8043B984701367A
:1013C000EEE755F8043B98470136F2E7D81C0008D1
:1013D000D81C0008D81C0008DC1C0008024B014681
:1013E000186800F053B800BF2400002037B500296A
:1013F00048D051F8043C0190002BA1F10404B8BF7F
:10140000E41800F0CDF8204A01981368154633B966
:101410006360146003B0BDE8304000F0C7B8A34279
:101420000BD921686218934204BF1A685B68636035
:1014300004BF521822602C60ECE71A465B680BB1BF
:10144000A342FAD911685518A5420BD1246821444A
:101450005418A3421160DDD11C685B6853602144BD
:101460001160D7E702D90C230360D3E7256861191F
:101470008B4204BF19685B68636004BF491921602F
:101480005460C7E703B030BDA8000020F8B5CD1CFC
:1014900025F0030508350C2D38BF0C25002D064618
:1014A00001DBA94203D90C2333600020F8BD00F012
:1014B00077F821490A6814469CB9204F3B6823B944
:1014C0002146304600F03CF838602946304600F0AE
:1014D00037F8431C23D10C233360304600F066F804
:1014E000E3E723685B1B17D40B2B03D923601C4451
:1014F000256004E06368A2420CBF0B605360304675
:1015000000F054F804F10B00231D20F00700C21A6C
:10151000CCD01B1AA350C9E722466468CCE7C41C90
:1015200024F00304A042E3D0211A304600F008F86A
:101530000130DDD1CFE700BFA8000020AC000020C3
:1015400038B5064D0023044608462B6000F07CFBAE
:10155000431C02D12B6803B1236038BDB8000020C2
:101560000EB400B59CB01DAB029006906FF0004128
:10157000094807910491094953F8042B0591006823
:10158000019302A900F074F8029B00221A701CB0AB
:101590005DF804EB03B07047240000200802FFFF51
:1015A000014800F0F9BA00BFC0000020014800F077
:1015B000F4BA00BFC00000202DE9F0478E689E42BB
:1015C00082460C4690461F4638D88A8912F4906F9E
:1015D00032D025680969A5EB0109656905EB450568
:1015E00005EBD57501334B446D109D4238BF1D4648
:1015F000530531D52946FFF749FF064650B90C235C
:10160000CAF80030A38943F04003A3814FF0FF30B4
:10161000BDE8F08721694A4600F0C0FAA38923F4A7
:10162000906343F08003A381266165614E44A5EB7E
:1016300009052660A5603E46BE4200D93E463246B8
:101640002068414600F0B8FAA36822689B1B324428
:10165000A36022600020DBE72A4600F0C7FA0646B6
:101660000028E1D121695046FFF7C0FEC7E700001E
:101670002DE9F04F98468B891B069DB007460D4615
:1016800014460ED50B6963B94021FFF7FFFE2860B1
:10169000286120B90C233B604FF0FF30D1E040239C
:1016A0006B610023099320238DF82930CDF80C803D
:1016B0003023DFF8A8818DF82A304FF00109234646
:1016C0009A4613F8012B0AB1252AF9D1BAEB040B7B
:1016D0000BD05B46224629463846FFF76DFF0130A6
:1016E00000F0AA80099A5A4409929AF80030002B17
:1016F00000F0A28000234FF0FF32CDE905230AF16C
:10170000010A049307938DF853301A935446052227
:1017100014F8011B5148FFF7ABFD049AD8B9D00665
:1017200044BF20238DF85330110744BF2B238DF87D
:1017300053309AF800302A2B15D0079A54460020CF
:101740004FF00A0C214611F8013B303B092B4ED9D2
:10175000B0B1079214E0A0EB080309FA03F31343B6
:101760000493A246D2E7039B191D1B680391002B2B
:10177000BBBF5B4242F0020207930793B8BF0492DB
:1017800023782E2B0CD163782A2B35D1039B1A1D7D
:101790001B680392002BB8BF4FF0FF330234059350
:1017A000DFF8C8A0217803225046FFF761FD40B161
:1017B0004023A0EB0A0003FA00F0049B034301342A
:1017C000049314F8011B26488DF828100622FFF711
:1017D0004FFD002838D0234B1BBB039B073323F05E
:1017E000070308330393099B3344099367E70CFB12
:1017F00002320C460120A5E7002301340593194667
:101800004FF00A0C204610F8012B303A092A03D970
:10181000002BC5D00591C3E70CFB01210446012331
:10182000F0E703AB00932A460F4B04A93846AFF309
:101830000080421C0646D6D1AB895B063FF52CAF33
:1018400009981DB0BDE8F08F03AB00932A46064B04
:1018500004A9384600F07AF8EBE700BFA21C0008A4
:10186000AC1C000800000000B9150008A81C000806
:101870002DE9F047164699468A680B69DDF8208005
:101880009342B8BF1346336091F8432007460C4695
:101890000AB1013333602368990642BF33680233CB
:1018A0003360256815F0060506D104F1190AE368CE
:1018B00032689B1AAB4226DC94F84320131E226840
:1018C00018BF012392062BD404F14302494638463F
:1018D000C04701301ED02368E568326803F0060374
:1018E000042B08BFAD1AA36822690CBF25EAE57571
:1018F00000259342C4BF9B1AED1800261A34B54246
:101900001AD1002008E00123524649463846C04714
:10191000013003D14FF0FF30BDE8F0870135C6E755
:10192000E1185A1C302081F84300224494F84510F5
:1019300082F843100233C7E701232246494638465E
:10194000C0470130E6D00136D9E700002DE9FF4756
:101950000C469146277E0C99782F80469A4604F1D2
:10196000430207D8622F0AD8002F00F0D880582FE2
:1019700000F0A38004F1420684F842703AE0A7F137
:101980006303152BF6D801A050F823F0E5190008E1
:10199000F91900087519000875190008751900086B
:1019A00075190008F919000875190008751900085B
:1019B0007519000875190008051B0008291A000888
:1019C000E71A00087519000875190008271B000898
:1019D00075190008291A00087519000875190008FA
:1019E000EF1A00080B681A1D1B680A6004F1420612
:1019F00084F842300123A3E0256808682E0600F130
:101A000004030AD505680B60002D03DA2D236D420F
:101A100084F843305E480A2319E015F0400F05684A
:101A20000B6018BF2DB2EFE70B682568181D086022
:101A3000280601D51D6802E06906FBD51D885448BB
:101A40006F2F0CBF08230A23002184F84310666817
:101A5000A660002EA2BF216821F0040121600DB90B
:101A6000002E4DD01646B5FBF3F103FB1157C75DB1
:101A700006F8017D2F46BB420D46F4D9082B0BD149
:101A80002368DF0708D5236961689942DEBF3023E8
:101A900006F8013C06F1FF36921B2261CDF800A04A
:101AA0004B4603AA21464046FFF7E2FE01304CD1E7
:101AB0004FF0FF3004B0BDE8F087354884F845703A
:101AC00023680E681F0656F8045B0E6014D5D9070C
:101AD00044BF43F0200323601DB9236823F0200393
:101AE00023601023B0E7236843F0200323607823AA
:101AF000284884F84530E3E75E0648BFADB2E6E724
:101B00001646BBE70B68266860691D1D0D6035062B
:101B10001B6801D5186002E07106FBD51880002310
:101B200023611646BAE70B681A1D0A601E686268D0
:101B300000213046FFF79CFB08B1801B60606368A2
:101B40002361002384F84330A8E7236932464946DD
:101B50004046D0470130ABD023689B0713D4E068E0
:101B6000039B9842B8BF1846A4E701233246494672
:101B70004046D04701309BD00135E36803995B1A9A
:101B8000AB42F2DCEBE7002504F11906F5E700BFF4
:101B9000B31C0008C41C0008704770470A449142F7
:101BA00000F1FF3300D1704710B511F8014B03F875
:101BB000014F9142F9D110BD884210B501EB0204EA
:101BC00002D98442234607D8431EA14208D011F807
:101BD000012B03F8012FF8E7024401468A4200D1A5
:101BE00010BD13F8014D02F8014DF7E7F8B50746AF
:101BF00014460E4621B9BDE8F8401146FFF746BC31
:101C000022B9FFF7F3FB25462846F8BD00F014F88B
:101C1000A0420FD221463846FFF738FC054600287F
:101C2000F2D031462246FFF7B9FF31463846FFF77A
:101C3000DDFBE9E73546E7E751F8043C181F002BC8
:101C4000BCBF0B58C0187047044A05491368002BE5
:101C500008BF0B461844106018467047B0000020BB
:101C6000C8000020F8B500BFF8BC08BC9E4670470D
:0C1C7000F8B500BFF8BC08BC9E467047E9
:101C7C00496E6974204D657465722E2E2E0000001D
:101C8C00496E697420446F6E650000006D533A20F4
:101C9C00256C640A0D00232D302B2000686C4C0041
:101CAC006566674546470030313233343536373850
:101CBC0039414243444546003031323334353637AE
:0C1CCC0038396162636465660000000046
:041CD800B50100084A
:041CDC00910100086A
:101CE00000000000000000000102030406070809CC
:101CF000007A030A00000000010203040102030449
:101D0000060708092800002000000000000000006D
:101D100000000000000000000000000000000000C3
:101D200000000000000000000000000000000000B3
:101D300000000000000000000000000000000000A3
:101D40000000000000000000000000000000000093
:101D50000000000000000000000000000000000083
:081D600000000000000000007B
:040000050800134993
:00000001FF
