:020000040800F2
:10000000FFFF0120790B0008C10B0008C10B00089D
:10001000C10B0008C10B0008C10B00080000000064
:10002000000000000000000000000000C10B0008FC
:10003000C10B000800000000C10B0008C10B000844
:10004000C10B0008C10B0008C10B0008C10B000860
:10005000C10B0008C10B0008C10B0008C10B000850
:10006000C10B0008C10B0008C10B0008C10B000840
:10007000C10B0008C10B0008C10B0008C10B000830
:10008000C10B0008C10B0008C10B0008C10B000820
:10009000C10B0008C10B0008C10B0008C10B000810
:1000A000C10B0008C10B0008C10B0008C10B000800
:1000B000C10B0008C10B0008C10B0008C10B0008F0
:1000C000C10B0008C10B0008C10B0008C10B0008E0
:1000D000C10B0008C10B0008C10B0008C10B0008D0
:1000E000C10B0008C10B0008C10B0008C10B0008C0
:1000F000C10B0008C10B0008C10B0008C10B0008B0
:10010000C10B0008C10B0008C10B0008C10B00089F
:10011000C10B0008C10B0008C10B0008C10B00088F
:10012000C10B0008C10B0008C10B0008C10B00087F
:10013000C10B0008C10B0008C10B0008C10B00086F
:10014000C10B0008C10B0008C10B0008C10B00085F
:10015000C10B0008C10B0008C10B0008C10B00084F
:10016000C10B0008C10B0008C10B0008C10B00083F
:10017000C10B0008C10B0008C10B0008C10B00082F
:08018000C10B0008C10B0008CF
:1001880038B5082000F03EFD074A084D136B43F0D0
:100198000103044613632023C4E9003504482146BB
:1001A80000F018FC204638BD003802400103000268
:1001B80000000240034A012303FA00F000235361C0
:1001C80050617047000002403849394BD1F8882007
:1001D800384842F47002C1F888201A68002142F0B9
:1001E80001021A6099601A6822F0847222F480323F
:1001F8001A6058601A6882B022F480221A60D960A6
:10020800009101911A6842F480321A6003E0009A62
:10021800B2F5A04F09D01A6802F400320192009A90
:1002280001320092019A002AF1D0214B1B6813F485
:10023800003318BF01230193019B012B05D01B4BF1
:100248004FF000629A6002B07047194B1A491A6C55
:100258001A4842F080521A640A6842F440420A601E
:100268009A689A609A6842F400429A609A6842F4DE
:10027800A0529A6058601A6842F080721A601A6830
:100288009201FCD50E4A0A4940F2057010609A683E
:1002980022F003029A609A6842F002029A608B6820
:1002A80003F00C03082BFAD1C9E700BF00ED00E00A
:1002B80000380240103000240070004019544007F4
:1002C800003C0240154A936803F00C03042B0BD042
:1002D800082B0BD0124B114A12499268C2F3031231
:1002E8008A5CD3400B6170470F4BF4E75068516844
:1002F80052684302C2F388124CBF0B4B084B01F003
:100308003F01B3FBF1F303FB02F3044A5268C2F363
:10031800014201325200B3FBF2F3DCE7003802403D
:100328000024F4000000002040787D010F4B1048A5
:100338001A68002142F0010230B41A6099601A6804
:100348000C4D0D4C22F0A85222F410221A605D6068
:10035800C3F88440C3F888001A6822F480221A601F
:1003680030BCD960C3F88C10704700BF0038024019
:10037800003000241030002400300020024B0022FE
:100388001A701870704700BF0238024082B000230C
:100398000949019300E04AB90A68019B01330193B6
:1003A800019BB3F5A04F02F40032F4D1024B186858
:1003B800C0F3404002B0704700380240034A136857
:1003C80023F0F80343EAC003136070470038024083
:1003D800014B1860704700BF00004742064B0022DF
:1003E80001281A701A7005D0042802D105221A7043
:1003F800704770471870704770380240014B18609A
:10040800704700BF800E474230B4029D064C40EA58
:1004180005605B080843013B40EA821040EA03405C
:10042800606030BC704700BF00380240014B186064
:10043800704700BF60004742034B090741EA80103C
:10044800C3F88400704700BF00380240014B1860B1
:10045800704700BF680047421207044B42EA016137
:1004680041EA8010C3F88800704700BF0038024096
:10047800014B1860704700BF70004742014B18607D
:10048800704700BF4C004742034A936823F0EC636F
:10049800194301439160704700380240034A93684A
:1004A80023F07843194301439160704700380240B4
:1004B800034A936823F0030303439360704700BF24
:1004C80000380240024B986800F00C00704700BFEB
:1004D80000380240034A936823F0F0030343936013
:1004E800704700BF00380240034A936823F4E05382
:1004F80003439360704700BF00380240034A936883
:1005080023F4604343EAC003936070470038024015
:100518001F4A936803F00C03042B10B41BD0082B5C
:100528001CD01C4B03601A4A1B499468C4F303147B
:100538000C5DE34043609468C4F382240C5D23FAA5
:1005480004F4846092685DF8044BC2F342328A5C1A
:10055800D340C3607047114B0360E4E754685168A7
:1005680052686302C2F388124CBF0C4B094B01F06E
:100578003F01B3FBF1F303FB02F3054A5268C2F3F0
:10058800014201325200B3FBF2F30360CBE700BF34
:10059800003802400024F4001400002040787D0157
:1005A80000F44073B3F5407F09D108498A6820F008
:1005B800704322F4F81223F4407313438B60034B07
:1005C8001A6FC0F30B0010431867704700380240D9
:1005D800014B1860704700BF3C0E4742014B186042
:1005E800704700BF400E4742014B1860704700BF7C
:1005F8005C014742044AD2F88C3023F44013034389
:10060800C2F88C30704700BF00380240044AD2F864
:100618008C3023F440030343C2F88C30704700BF8A
:1006280000380240044AD2F88C30013823F01F0306
:100638001843C2F88C00704700380240054AD2F8C7
:100648008C30013823F4F85343EA0023C2F88C3085
:10065800704700BF00380240044AD2F88C3023F4B7
:1006680040330343C2F88C30704700BF0038024063
:10067800014B1860704700BFE0114742044A136BF2
:1006880011B118431063704723EA000010637047E4
:1006980000380240044A536B11B118435063704745
:1006A80023EA00005063704700380240044A936B05
:1006B80011B118439063704723EA000090637047B4
:1006C80000380240044A136C11B118431064704793
:1006D80023EA00001064704700380240044A536C53
:1006E80011B118435064704723EA00005064704702
:1006F80000380240044A136911B118431061704769
:1007080023EA00001061704700380240044A536928
:1007180011B118435061704723EA000050617047D7
:1007280000380240044A936911B118439061704738
:1007380023EA00009061704700380240044A136AB7
:1007480011B118431062704723EA00001062704725
:1007580000380240044A536A11B118435062704786
:1007680023EA00005062704700380240044A136DC3
:1007780011B118431065704723EA000010657047EF
:1007880000380240044A536D11B118435065704750
:1007980023EA00005065704700380240044A936D10
:1007A80011B118439065704723EA000090657047BF
:1007B80000380240044A136E11B11843106670479E
:1007C80023EA00001066704700380240044A536E5E
:1007D80011B118435066704723EA0000506670470D
:1007E80000380240044A136F01280CBF43F0080385
:1007F80023F008031367704700380240044A13784F
:1008080011B118431070704723EA00001070704748
:100818000D3802404309012B0BD0022B094B0CBFAA
:100828001B6F5B6F00F01F0023FA00F000F001005F
:100838007047044B1B6800F01F0023FA00F000F01B
:100848000100704700380240024A536F43F080733A
:100858005367704700380240034BDB68184214BFE7
:1008680001200020704700BF00380240014B18707B
:10087800704700BF0E38024008B54B4B984228D04D
:100888004A4B98422FD04A4B984236D0494B98420F
:1008980015D0494B98423AD0484B984241D0484BE2
:1008A800984248D0474B98425BD0474B98424CD02F
:1008B800464B98425FD0464B984268D008BD01210C
:1008C8000820FFF717FFBDE8084000210820FFF7C0
:1008D80011BF01210846FFF70DFFBDE808400021C0
:1008E8000120FFF707BF01210220FFF703FFBDE842
:1008F800084000210220FFF7FDBE01210420FFF778
:10090800F9FEBDE8084000210420FFF7F3BE0121ED
:100918001020FFF7EFFEBDE8084000211020FFF788
:10092800E9BE01212020FFF7E5FEBDE808400021CF
:100938002020FFF7DFBE01214020FFF7DBFEBDE8E6
:10094800084000214020FFF7D5BE01214FF48070F8
:10095800FFF7D0FEBDE8084000214FF48070FFF794
:10096800C9BE01218020FFF7C5FEBDE8084000216F
:100978008020FFF7BFBE01214FF40070FFF7BAFED9
:10098800BDE8084000214FF40070FFF7B3BE012115
:100998004FF48060FFF7AEFEBDE8084000214FF439
:1009A8008060FFF7A7BE00BF0000024000040240BD
:1009B80000080240000C02400010024000140240EF
:1009C80000180240001C024000200240002402409F
:1009D800002802402DE9F04700230F6801264FF058
:1009E800030C02E00133102B41D006FA03F232EA7D
:1009F8000704F7D1D0F800E05C000CFA04F52EEA01
:100A0800050EC0F800E091F80490D0F800A009FAAB
:100A180004FE09F1FF394EEA0A0EB9F1010FA846A2
:100A2800C0F800E06FEA050515D8D0F808E005EA37
:100A38000E0585604D79D0F808E0A54045EA0E0519
:100A48008560456825EA020242608A7945689A40CD
:100A580092B22A434260C26822EA0802C260CA7996
:100A6800C568A24001332A43102BC260BDD1BDE83E
:100A7800F08700BF4FF6FF720023C0E900237047DC
:100A880082B04FF480330193019B0B430193019B88
:100A9800C361C161019BC361C3690193C3690193C8
:100AA80002B070470369194214BF01200020704743
:100AB800006980B2704700BF4369194214BF012022
:100AC80000207047406980B2704700BF01837047BB
:100AD800418370470AB1018370474183704700BF63
:100AE800416170474369594041617047CB0800EB49
:100AF800830001F0070110B4036A89000F248C40B9
:100B080023EA04030362036A5DF8044B8A401A432C
:100B18000262704710B5054C227832B9044B13B104
:100B28000448AFF300800123237010BD8800002023
:100B380000000000280D000808B5034B1BB103494D
:100B48000348AFF3008008BD000000008C000020BF
:100B5800280D000808B5FFF713FB044C0146206078
:100B68000520FFF727FB2168FAE700BFB000002047
:100B7800002103E00B4B5B58435004310A480B4BF0
:100B880042189A42F6D30A4A02E0002342F8043B8C
:100B9800084B9A42F9D3FFF717FB00F00FF8FFF75D
:100BA800D9FF7047480D0008000000208800002089
:100BB80088000020C4000020FEE7000070B50D4D3D
:100BC8000D4C641BA4100026A64209D10B4D0C4CF9
:100BD80000F0A6F8641BA4100026A64205D170BD3B
:100BE80055F8043B98470136EEE755F8043B98471B
:100BF8000136F2E7400D0008400D0008400D0008DE
:100C0800440D0008024B0146186800F003B800BF05
:100C180024000020F8B5CD1C25F0030508350C2D5F
:100C280038BF0C25002D064601DBA94203D90C2349
:100C380033600020F8BD00F059F821490A681446CD
:100C48009CB9204F3B6823B92146304600F03CF858
:100C580038602946304600F037F8431C23D10C236E
:100C68003360304600F048F8E3E723685B1B17D48D
:100C78000B2B03D923601C44256004E06368A2425F
:100C88000CBF0B605360304600F036F804F10B00DF
:100C9800231D20F00700C21ACCD01B1AA350C9E7A5
:100CA80022466468CCE7C41C24F00304A042E3D0C5
:100CB800211A304600F008F80130DDD1CFE700BF37
:100CC800A4000020A800002038B5064D00230446E3
:100CD80008462B6000F016F8431C02D12B6803B1BC
:100CE800236038BDC0000020704770470148FFF7F7
:100CF800FBBF00BFB80000200148FFF7F6BF00BFE8
:100D0800B8000020044A05491368002B08BF0B46A9
:100D18001844106018467047AC000020C40000203A
:100D2800F8B500BFF8BC08BC9E467047F8B500BFD0
:080D3800F8BC08BC9E467047A0
:040D4000410B00085B
:040D44001D0B00087B
:100D48000000000000000000010203040607080973
:100D5800007A030A000000000102030401020304F0
:100D68000607080928000020000000000000000015
:100D7800000000000000000000000000000000006B
:100D8800000000000000000000000000000000005B
:100D9800000000000000000000000000000000004B
:100DA800000000000000000000000000000000003B
:100DB800000000000000000000000000000000002B
:080DC800000000000000000023
:0400000508000B796B
:00000001FF
