:020000040800F2
:10000000FFFF0120890C0008D10C0008D10C00086A
:10001000D10C0008D10C0008D10C00080000000031
:10002000000000000000000000000000D10C0008EB
:10003000D10C000800000000D10C0008D10C000811
:10004000D10C0008D10C0008D10C0008D10C00081C
:10005000D10C0008D10C0008D10C0008D10C00080C
:10006000D10C0008D10C0008D10C0008D10C0008FC
:10007000D10C0008D10C0008D10C0008D10C0008EC
:10008000D10C0008D10C0008D10C0008D10C0008DC
:10009000D10C0008D10C0008D10C0008D10C0008CC
:1000A000D10C0008D10C0008D10C0008D10C0008BC
:1000B000D10C0008D10C0008D10C0008D10C0008AC
:1000C000D10C0008D10C0008D10C0008D10C00089C
:1000D000D10C0008D10C0008D10C0008D10C00088C
:1000E000D10C0008D10C0008D10C0008D10C00087C
:1000F000D10C0008D10C0008D10C0008D10C00086C
:10010000D10C0008D10C0008D10C0008D10C00085B
:10011000D10C0008D10C0008D10C0008D10C00084B
:10012000D10C0008D10C0008D10C0008D10C00083B
:10013000D10C0008D10C0008D10C0008D10C00082B
:10014000D10C0008D10C0008D10C0008D10C00081B
:10015000D10C0008D10C0008D10C0008D10C00080B
:10016000D10C0008D10C0008D10C0008D10C0008FB
:10017000D10C0008D10C0008D10C0008D10C0008EB
:08018000D10C0008D10C0008AD
:1001900038B5082000F0C2FD074A084D136B43F044
:1001A0000103044613632023C4E9003504482146B3
:1001B00000F020FC204638BD003802400103000258
:1001C00000000240032807DC054A0123002103FA4E
:1001D00000F0516150617047024800F059BE00BF05
:1001E000000002407C1C00083849394BD1F88820B7
:1001F000384842F47002C1F888201A68002142F0A1
:1002000001021A6099601A6822F0847222F4803226
:100210001A6058601A6882B022F480221A60D9608D
:10022000009101911A6842F480321A6003E0009A4A
:10023000B2F5A04F09D01A6802F400320192009A78
:1002400001320092019A002AF1D0214B1B6813F46D
:10025000003318BF01230193019B012B05D01B4BD9
:100260004FF000629A6002B07047194B1A491A6C3D
:100270001A4842F080521A640A6842F440420A6006
:100280009A689A609A6842F400429A609A6842F4C6
:10029000A0529A6058601A6842F080721A601A6818
:1002A0009201FCD50E4A0A4940F2057010609A6826
:1002B00022F003029A609A6842F002029A608B6808
:1002C00003F00C03082BFAD1C9E700BF00ED00E0F2
:1002D00000380240103000240070004019544007DC
:1002E000003C0240154A936803F00C03042B0BD02A
:1002F000082B0BD0124B114A12499268C2F3031219
:100300008A5CD3400B6170470F4BF4E7506851682B
:1003100052684302C2F388124CBF0B4B084B01F0EA
:100320003F01B3FBF1F303FB02F3044A5268C2F34B
:10033000014201325200B3FBF2F3DCE70038024025
:100340000024F4000000002040787D010F4B10488D
:100350001A68002142F0010230B41A6099601A68EC
:100360000C4D0D4C22F0A85222F410221A605D6050
:10037000C3F88440C3F888001A6822F480221A6007
:1003800030BCD960C3F88C10704700BF0038024001
:10039000003000241030002400300020024B0022E6
:1003A0001A701870704700BF0238024082B00023F4
:1003B0000949019300E04AB90A68019B013301939E
:1003C000019BB3F5A04F02F40032F4D1024B186840
:1003D000C0F3404002B0704700380240034A13683F
:1003E00023F0F80343EAC00313607047003802406B
:1003F000014B1860704700BF00004742064B0022C7
:1004000001281A701A7005D0042802D105221A702A
:10041000704770471870704770380240014B186081
:10042000704700BF800E474230B4029D064C40EA40
:1004300005605B080843013B40EA821040EA034044
:10044000606030BC704700BF00380240014B18604C
:10045000704700BF60004742034B090741EA801024
:10046000C3F88400704700BF00380240014B186099
:10047000704700BF680047421207044B42EA01611F
:1004800041EA8010C3F88800704700BF003802407E
:10049000014B1860704700BF70004742014B186065
:1004A000704700BF4C004742034A936823F0EC6357
:1004B000194301439160704700380240034A936832
:1004C00023F078431943014391607047003802409C
:1004D000034A936823F0030303439360704700BF0C
:1004E00000380240024B986800F00C00704700BFD3
:1004F00000380240034A936823F0F00303439360FB
:10050000704700BF00380240034A936823F4E05369
:1005100003439360704700BF00380240034A93686A
:1005200023F4604343EAC0039360704700380240FD
:100530001F4A936803F00C03042B10B41BD0082B44
:100540001CD01C4B03601A4A1B499468C4F3031463
:100550000C5DE34043609468C4F382240C5D23FA8D
:1005600004F4846092685DF8044BC2F342328A5C02
:10057000D340C3607047114B0360E4E7546851688F
:1005800052686302C2F388124CBF0C4B094B01F056
:100590003F01B3FBF1F303FB02F3054A5268C2F3D8
:1005A000014201325200B3FBF2F30360CBE700BF1C
:1005B000003802400024F4001400002040787D013F
:1005C00000F44073B3F5407F09D108498A6820F0F0
:1005D000704322F4F81223F4407313438B60034BEF
:1005E0001A6FC0F30B0010431867704700380240C1
:1005F000014B1860704700BF3C0E4742014B18602A
:10060000704700BF400E4742014B1860704700BF63
:100610005C014742044AD2F88C3023F44013034370
:10062000C2F88C30704700BF00380240044AD2F84C
:100630008C3023F440030343C2F88C30704700BF72
:1006400000380240044AD2F88C30013823F01F03EE
:100650001843C2F88C00704700380240054AD2F8AF
:100660008C30013823F4F85343EA0023C2F88C306D
:10067000704700BF00380240044AD2F88C3023F49F
:1006800040330343C2F88C30704700BF003802404B
:10069000014B1860704700BFE0114742044A136BDA
:1006A00011B118431063704723EA000010637047CC
:1006B00000380240044A536B11B11843506370472D
:1006C00023EA00005063704700380240044A936BED
:1006D00011B118439063704723EA0000906370479C
:1006E00000380240044A136C11B11843106470477B
:1006F00023EA00001064704700380240044A536C3B
:1007000011B118435064704723EA000050647047E9
:1007100000380240044A136911B118431061704750
:1007200023EA00001061704700380240044A536910
:1007300011B118435061704723EA000050617047BF
:1007400000380240044A936911B118439061704720
:1007500023EA00009061704700380240044A136A9F
:1007600011B118431062704723EA0000106270470D
:1007700000380240044A536A11B11843506270476E
:1007800023EA00005062704700380240044A136DAB
:1007900011B118431065704723EA000010657047D7
:1007A00000380240044A536D11B118435065704738
:1007B00023EA00005065704700380240044A936DF8
:1007C00011B118439065704723EA000090657047A7
:1007D00000380240044A136E11B118431066704786
:1007E00023EA00001066704700380240044A536E46
:1007F00011B118435066704723EA000050667047F5
:1008000000380240044A136F01280CBF43F008036C
:1008100023F008031367704700380240044A137836
:1008200011B118431070704723EA00001070704730
:100830000D3802404309012B0BD0022B094B0CBF92
:100840001B6F5B6F00F01F0023FA00F000F0010047
:100850007047044B1B6800F01F0023FA00F000F003
:100860000100704700380240024A536F43F0807322
:100870005367704700380240034BDB68184214BFCF
:1008800001200020704700BF00380240014B187063
:10089000704700BF0E38024008B54B4B984228D035
:1008A0004A4B98422FD04A4B984236D0494B9842F7
:1008B00015D0494B98423AD0484B984241D0484BCA
:1008C000984248D0474B98425BD0474B98424CD017
:1008D000464B98425FD0464B984268D008BD0121F4
:1008E0000820FFF717FFBDE8084000210820FFF7A8
:1008F00011BF01210846FFF70DFFBDE808400021A8
:100900000120FFF707BF01210220FFF703FFBDE829
:10091000084000210220FFF7FDBE01210420FFF75F
:10092000F9FEBDE8084000210420FFF7F3BE0121D5
:100930001020FFF7EFFEBDE8084000211020FFF770
:10094000E9BE01212020FFF7E5FEBDE808400021B7
:100950002020FFF7DFBE01214020FFF7DBFEBDE8CE
:10096000084000214020FFF7D5BE01214FF48070E0
:10097000FFF7D0FEBDE8084000214FF48070FFF77C
:10098000C9BE01218020FFF7C5FEBDE80840002157
:100990008020FFF7BFBE01214FF40070FFF7BAFEC1
:1009A000BDE8084000214FF40070FFF7B3BE0121FD
:1009B0004FF48060FFF7AEFEBDE8084000214FF421
:1009C0008060FFF7A7BE00BF0000024000040240A5
:1009D00000080240000C02400010024000140240D7
:1009E00000180240001C0240002002400024024087
:1009F000002802402DE9F04700230F6801264FF040
:100A0000030C02E00133102B41D006FA03F232EA64
:100A10000704F7D1D0F800E05C000CFA04F52EEAE8
:100A2000050EC0F800E091F80490D0F800A009FA93
:100A300004FE09F1FF394EEA0A0EB9F1010FA8468A
:100A4000C0F800E06FEA050515D8D0F808E005EA1F
:100A50000E0585604D79D0F808E0A54045EA0E0501
:100A60008560456825EA020242608A7945689A40B5
:100A700092B22A434260C26822EA0802C260CA797E
:100A8000C568A24001332A43102BC260BDD1BDE826
:100A9000F08700BF4FF6FF720023C0E900237047C4
:100AA00082B04FF480330193019B0B430193019B70
:100AB000C361C161019BC361C3690193C3690193B0
:100AC00002B070470369194214BF0120002070472B
:100AD000006980B2704700BF4369194214BF01200A
:100AE00000207047406980B2704700BF01837047A3
:100AF000418370470AB1018370474183704700BF4B
:100B0000416170474369594041617047CB0800EB30
:100B1000830001F0070110B4036A89000F248C40A0
:100B200023EA04030362036A5DF8044B8A401A4314
:100B3000026270470000000000000000000000009A
:100B400001F0FF01102A2BDB10F0070F08D010F87E
:100B5000013B013A8B422DD010F0070F42B3F6D182
:100B6000F0B441EA012141EA014122F007047FF09B
:100B700000070023F0E80256083C85EA010586EAF2
:100B8000010685FA47F5A3FA87F586FA47F6A5FA2E
:100B900087F68EB9EED1F0BC01F0FF0102F007023A
:100BA00032B110F8013B013A83EA010313B1F8D1E5
:100BB0000020704701387047002D06BF35460338C6
:100BC000073815F0010F07D1013015F4807F02BFFF
:100BD000013015F4C03F0130F0BC0138704700BF50
:100BE0000348044B834202D0034B03B118477047BC
:100BF0008800002088000020000000000548064B07
:100C00001B1AD90F01EBA301491002D0034B03B10A
:100C1000184770478800002088000020000000006E
:100C200010B5064C227842B9FFF7DAFF044B13B136
:100C30000448AFF300800123237010BD880000201A
:100C400000000000641C000808B5054B1BB10549F5
:100C50000548AFF30080BDE80840FFF7CFBF00BFF5
:100C6000000000008C000020641C000808B5FFF79D
:100C70008FFA044C014620600520FFF7A3FA216893
:100C8000FAE700BFB0000020002103E00B4B5B58E7
:100C9000435004310A480B4B42189A42F6D30A4A91
:100CA00002E0002342F8043B084B9A42F9D3FFF7D5
:100CB0009BFA00F00FF8FFF7D9FF7047301D0008CE
:100CC000000000208800002088000020C4000020D0
:100CD000FEE7000070B50D4D0D4C641BA4100026FE
:100CE000A64209D10B4D0C4C00F0BCFF641BA410B4
:100CF0000026A64205D170BD55F8043B9847013641
:100D0000EEE755F8043B98470136F2E7281D000846
:100D1000281D0008281D00082C1D0008024B014654
:100D2000186800F05BB800BF2400002002440346AE
:100D3000934200D1704703F8011BF9E737B500294A
:100D400048D051F8043C0190002BA1F10404B8BF35
:100D5000E41800F0BDF9204A01981368154633B92C
:100D60006360146003B0BDE8304000F0B7B9A3423F
:100D70000BD921686218934204BF1A685B686360EC
:100D800004BF521822602C60ECE71A465B680BB176
:100D9000A342FAD911685518A5420BD12468214401
:100DA0005418A3421160DDD11C685B685360214474
:100DB0001160D7E702D90C230360D3E725686119D6
:100DC0008B4204BF19685B68636004BF49192160E6
:100DD0005460C7E703B030BDA4000020F8B5CD1CB7
:100DE00025F0030508350C2D38BF0C25002D0646CF
:100DF00001DBA94203D90C2333600020F8BD00F0C9
:100E000067F921490A6814469CB9204F3B6823B909
:100E10002146304600F054F838602946304600F04C
:100E20004FF8431C23D10C233360304600F056F9B1
:100E3000E3E723685B1B17D40B2B03D923601C4407
:100E4000256004E06368A2420CBF0B60536030462B
:100E500000F044F904F10B00231D20F00700C21A32
:100E6000CCD01B1AA350C9E722466468CCE7C41C47
:100E700024F00304A042E3D0211A304600F020F809
:100E80000130DDD1CFE700BFA4000020A800002082
:100E90000FB40A4B13B51C6824B1A36913B92046DB
:100EA00000F076F805AB049AA1680193204600F0A3
:100EB00045F902B0BDE8104004B07047240000209E
:100EC00038B5064D0023044608462B6000F0B4FEFA
:100ED000431C02D12B6803B1236038BDC000002041
:100EE000002310B50446C0E90033C0E90433836031
:100EF00081814366C2818361194608225C30FFF715
:100F000015FF054B6362054BA362054BE362054B7E
:100F10002462236310BD00BFC5160008E716000851
:100F20001F17000843170008014900F0AFB800BFC1
:100F30001D1A000870B54A1E682555430E4605F176
:100F40007401FFF74BFF044640B10021C0E90016D1
:100F50000C30A06005F16802FFF7E8FE204670BD86
:100F6000014800F0B3B800BFBC000020014800F009
:100F7000AEB800BFBC000020014800F0A7B800BF19
:100F8000B7000020014800F0A2B800BFB700002061
:100F900010B50446FFF7F0FFA3691BB1BDE8104090
:100FA000FFF7F0BFC4E912332365134B134A1B68E4
:100FB000A262A34204BF0123A361204600F020F8EF
:100FC0006060204600F01CF8A060204600F018F891
:100FD0000022E06004216068FFF782FFA068012220
:100FE0000921FFF77DFFE06802221221FFF778FF59
:100FF0000123A361D2E700BF901C0008290F00085D
:10100000F8B50746FFF7ACFF1E4B1E68B36913B96E
:101010003046FFF7BDFF4836D6E90134013B03D522
:1010200033680BB33668F7E7B4F90C50D5B9164BF3
:10103000E36004F15800656600F047F8FFF796FF9B
:10104000C4E90155C4E904552560A5610822294673
:1010500004F15C00FFF76AFEC4E90D55C4E91255BE
:101060002046F8BD6834D9E704213846FFF762FF0F
:10107000044630600028D5D1FFF778FF0C233B6091
:10108000EEE700BF901C00080100FFFF2DE9F843C8
:101090000646884600F148040027D4E90195B9F1D5
:1010A000010905D52468002CF7D13846BDE8F8833E
:1010B000AB89012B07D9B5F90E30013303D029468E
:1010C0003046C04707436835E9E7704770477047C7
:1010D0000148FFF7FBBF00BFB80000200148FFF741
:1010E000F6BF00BFB80000209368013B002B10B48E
:1010F000936008DA9469A34201DB0A2903D15DF801
:10110000044B00F023BB1368581C1060197008468C
:101110005DF8044B7047F8B506460F461446D518DF
:10112000AC4201D1002007E014F8011B3A463046DA
:10113000FFF7DAFF431CF3D1F8BD00002DE9F04FB3
:101140000D469DB014469846064618B183690BB902
:10115000FFF71EFF894B9D421BD175686B6ED90747
:1011600005D4AB899A0502D4A86DFFF7AFFFAB8910
:101170001B0701D52B69EBB92946304600F04AFB25
:10118000C0B16B6EDC070ED54FF0FF301DB0BDE86F
:10119000F08F7B4B9D4201D1B568DFE7794B9D42D3
:1011A00008BFF568DAE7AB899805EDD4A86DFFF7BD
:1011B0008EFFE9E70023099320238DF82930CDF82D
:1011C0000C803023DFF8C0818DF82A304FF0010900
:1011D00023469A4613F8012B0AB1252AF9D1BAEB16
:1011E000040B0BD05B46224629463046FFF793FF9F
:1011F000013000F0AA80099A5A4409929AF8003006
:10120000002B00F0A28000234FF0FF32CDE9052330
:101210000AF1010A049307938DF853301A93544648
:10122000052214F8011B5848FFF78AFC049AD8B924
:10123000D10644BF20238DF85330130744BF2B231E
:101240008DF853309AF800302A2B15D0079A54465F
:1012500000204FF00A0C214611F8013B303B092BCE
:101260004ED9B0B1079214E0A0EB080309FA03F3DA
:1012700013430493A246D2E7039B191D1B680391F5
:10128000002BBBBF5B4242F0020207930793B8BF3B
:10129000049223782E2B0CD163782A2B35D1039B13
:1012A0001A1D1B680392002BB8BF4FF0FF330234A6
:1012B0000593DFF8E4A0217803225046FFF740FCB5
:1012C00040B14023A0EB0A0003FA00F0049B034363
:1012D0000134049314F8011B2C488DF828100622C1
:1012E000FFF72EFC00283FD0294B1BBB039B073385
:1012F00023F0070308330393099B3B44099367E7F3
:101300000CFB02320C460120A5E7002301340593B3
:1013100019464FF00A0C204610F8012B303A092AE2
:1013200003D9002BC5D00591C3E70CFB012104466E
:101330000123F0E703AB00932A46164B04A930467D
:10134000AFF300800746781CD6D16B6ED90705D461
:10135000AB899A0502D4A86DFFF7B9FEAB895B068D
:101360003FF512AF099811E703AB00932A46094BEA
:1013700004A9304600F080F8E4E700BFB41C000880
:10138000D41C0008941C0008F41C0008FE1C000873
:101390000000000017110008FA1C00082DE9F047B2
:1013A000164699468A680B69DDF820809342B8BFDB
:1013B0001346336091F8432007460C460AB10133C7
:1013C00033602368990642BF33680233336025686F
:1013D00015F0060506D104F1190AE36832689B1A74
:1013E000AB4226DC94F84320131E226818BF012369
:1013F00092062BD404F1430249463846C0470130D7
:101400001ED02368E568326803F00603042B08BF8A
:10141000AD1AA36822690CBF25EAE5750025934241
:10142000C4BF9B1AED1800261A34B5421AD1002009
:1014300008E00123524649463846C047013003D1EF
:101440004FF0FF30BDE8F0870135C6E7E1185A1CC0
:10145000302081F84300224494F8451082F843106C
:101460000233C7E70123224649463846C0470130C8
:10147000E6D00136D9E700002DE9FF470C4691463A
:10148000277E0C99782F80469A4604F1430207D8AC
:10149000622F0AD8002F00F0D880582F00F0A380C8
:1014A00004F1420684F842703AE0A7F16303152B79
:1014B000F6D801A050F823F01115000825150008F2
:1014C000A1140008A1140008A1140008A114000828
:1014D00025150008A1140008A1140008A114000893
:1014E000A11400083116000855150008131600084D
:1014F000A1140008A114000853160008A114000844
:1015000055150008A1140008A11400081B160008B6
:101510000B681A1D1B680A6004F1420684F8423009
:101520000123A3E0256808682E0600F104030AD50C
:1015300005680B60002D03DA2D236D4284F84330DB
:101540005E480A2319E015F0400F05680B6018BFCC
:101550002DB2EFE70B682568181D0860280601D535
:101560001D6802E06906FBD51D8854486F2F0CBF2B
:1015700008230A23002184F843106668A660002E21
:10158000A2BF216821F0040121600DB9002E4DD0C9
:101590001646B5FBF3F103FB1157C75D06F8017D55
:1015A0002F46BB420D46F4D9082B0BD12368DF0729
:1015B00008D5236961689942DEBF302306F8013CF3
:1015C00006F1FF36921B2261CDF800A04B4603AA1C
:1015D00021464046FFF7E2FE01304CD14FF0FF308C
:1015E00004B0BDE8F087354884F8457023680E687C
:1015F0001F0656F8045B0E6014D5D90744BF43F0AC
:10160000200323601DB9236823F0200323601023E7
:10161000B0E7236843F0200323607823284884F848
:101620004530E3E75E0648BFADB2E6E71646BBE7E6
:101630000B68266860691D1D0D6035061B6801D5A5
:10164000186002E07106FBD518800023236116465E
:10165000BAE70B681A1D0A601E68626800213046EE
:10166000FFF76EFA08B1801B606063682361002396
:1016700084F84330A8E72369324649464046D047BC
:101680000130ABD023689B0713D4E068039B9842DA
:10169000B8BF1846A4E70123324649464046D04722
:1016A00001309BD00135E36803995B1AAB42F2DC51
:1016B000EBE7002504F11906F5E700BF051D00085A
:1016C000161D000810B50C46B1F90E1000F058FABE
:1016D0000028ABBF636DA3891B1823F48053ACBFF4
:1016E0006365A38110BD2DE9F0411F468B89DB05A1
:1016F00005460C46164605D5B1F90E100223002208
:1017000000F0C8F9A389B4F90E1023F48053A38123
:1017100032463B462846BDE8F04100F069B810B5B6
:101720000C46B1F90E1000F0B5F9431CA38915BFA2
:10173000606523F4805343F48053A38118BFA381D1
:1017400010BDB1F90E1000F0D3B80000F8B50E4688
:101750001446054618B183690BB9FFF719FC214BF4
:101760009C422BD16C68A369A360A3891A072FD56B
:1017700023696BB323692068C01A6369F6B2834298
:10178000374604DC2146284600F048F930BBA36800
:10179000013BA36023685A1C22601E7063690130FC
:1017A000834204D0A389DB0706D50A2E04D1214643
:1017B000284600F033F988B93846F8BD0A4B9C42F8
:1017C00001D1AC68CFE7094B9C4208BFEC68CAE77F
:1017D0002146284600F01EF80028CBD04FF0FF37F6
:1017E000EAE700BFB41C0008D41C0008941C0008E1
:1017F00038B5074D04460846114600222A601A46AD
:1018000000F028FA431C02D12B6803B1236038BDD5
:10181000C0000020324B70B51D6806460C4625B14D
:10182000AB6913B92846FFF7B3FB2E4B9C420FD18F
:101830006C68A389B4F90C2019072CD4DD0611D4E7
:101840000923336042F04003A3814FF0FF303EE0B4
:10185000254B9C4201D1AC68EBE7244B9C4208BF6E
:10186000EC68E6E7580712D5616B41B104F1440317
:10187000994202D03046FFF761FA00236363A389DF
:1018800023F02403A3810023636023692360A389D9
:1018900043F00803A38123694BB9A38903F42073A0
:1018A000B3F5007F03D02146304600F029F9A08926
:1018B000B4F90C2010F001030AD00023A36063697F
:1018C0005B42A361236943B910F08000BAD170BDB7
:1018D000810758BF6369A360F4E70020F7E700BF02
:1018E00024000020B41C0008D41C0008941C00082C
:1018F00038B5064D0023044608462B6000F074F905
:10190000431C02D12B6803B1236038BDC000002006
:101910008A892DE9F041054610070C4658D44B68DA
:10192000002B05DC0B6C002B02DC0020BDE8F081F5
:10193000E66A002EF9D0002312F480522F682B6043
:1019400032D0606DA3895A0705D56368C01A636BEE
:101950000BB1236CC01A00230246E66A216A2846AE
:10196000B047431CA38906D129681D292CD82A4ACF
:10197000CA40D60728D500226260D90422692260B5
:1019800004D5421C01D12B6803B96065616B2F60DF
:101990000029CAD004F14403994202D02846FFF737
:1019A000CDF900206063C1E7216A01232846B047D2
:1019B000411CC7D12B68002BC4D01D2B01D0162B86
:1019C00001D12F60B1E7A38943F04003A381ADE7C4
:1019D0000F69002FA9D093070E6808BF4B690F60ED
:1019E00018BF0023A6EB07088B60B8F1000F9CDD41
:1019F000216AA66A43463A462846B047002806DCD4
:101A0000A38943F04003A3814FF0FF308EE70744E2
:101A1000A8EB0008E9E700BF0100402038B50B69DA
:101A200005460C4613B90025284638BD18B1836910
:101A30000BB9FFF7ADFA144B9C421BD16C68B4F99B
:101A40000C30002BEFD0626ED00704D4990502D47D
:101A5000A06DFFF73BFB28462146FFF759FF636E59
:101A6000DA070546E0D4A3899B05DDD4A06DFFF716
:101A70002EFBD9E7054B9C4201D1AC68DFE7044B54
:101A80009C4208BFEC68DAE7B41C0008D41C0008CC
:101A9000941C000838B5074D04460846114600223C
:101AA0002A601A4600F0B8F8431C02D12B6803B133
:101AB000236038BDC000002070B50E46B1F90E108D
:101AC000002996B014461D4607DA00232B60B3891F
:101AD0001A0610D44FF480630EE06A4600F062F8F4
:101AE0000028F2DB019A02F47042A2F500535A4238
:101AF0005A412A60EEE740230020236016B070BDF3
:101B00008B8973B59D0706460C4607D504F147033C
:101B1000236023610123636102B070BD01AB6A469B
:101B2000FFF7CAFF009905463046FFF757F948B955
:101B3000B4F90C309A05EFD423F0030343F0020309
:101B4000A381E3E70D4BB362A389206043F08003D8
:101B5000A381009B6361019B20615BB1B4F90E100E
:101B6000304600F031F828B1A38923F0030343F095
:101B70000103A381A0890543A581CDE7290F0008B2
:101B800038B5074D04460846114600222A601A4619
:101B900000F04AF8431C02D12B6803B1236038BD22
:101BA000C000002038B5074D002304460846114602
:101BB0002B6000F021F8431C02D12B6803B1236095
:101BC00038BD00BFC000002038B5064D00230446D4
:101BD00008462B6000F018F8431C02D12B6803B1B3
:101BE000236038BDC0000020024B58221A604FF01D
:101BF000FF307047C0000020024B58221A604FF09F
:101C0000FF307047C0000020024B58221A600020AD
:101C1000704700BFC0000020024B58221A604FF0EE
:101C2000FF307047C0000020024B58221A604FF06E
:101C3000FF307047C0000020044A05491368002B9C
:101C400008BF0B461844106018467047AC000020CF
:101C5000C4000020024B58221A604FF0FF3070473A
:101C6000C0000020F8B500BFF8BC08BC9E46704715
:0C1C7000F8B500BFF8BC08BC9E467047E9
:101C7C0052656C6179204F7574206F662052616ECD
:101C8C006765000028000020000000000000000034
:101C9C000000000000000000000000000000000038
:101CAC000000000000000000000000000000000028
:101CBC000000000000000000000000000000000018
:101CCC000000000000000000000000000000000008
:101CDC0000000000000000000000000000000000F8
:101CEC000000000000000000232D302B2000686C49
:101CFC004C00656667454647003031323334353623
:101D0C00373839414243444546003031323334355B
:0C1D1C0036373839616263646566000088
:041D2800490C00085A
:041D2C00210C00087E
:101D3000000000000000000001020304060708097B
:101D4000007A030A000000000102030401020304F8
:101D5000060708092800002000000000B41C000845
:101D6000D41C0008941C00080000000000000000C3
:101D70000000000000000000000000000000000063
:101D80000000000000000000000000000000000053
:101D90000000000000000000000000000000000043
:101DA0000000000000000000000000000000000033
:081DB00000000000000000002B
:0400000508000C895A
:00000001FF
